:0E02B7000808FFFE00000000FDFD022400000C
:1002A200EF1FAC0670011E4C70F6EF1FAC0670011A
:0502B2001E4C70F62255
:10000300E4F587759850438920758DFD758BFDD276
:060013008ED2AFD2AC2238
:100026001200037510FF7511DDD2AC859022AF105A
:10003600120019AF22120019AF111200197FE87EC3
:10004600031202A2E513F4451270E0E51564FE45BD
:100056001470D8E51F64FD451E70D0E52164FC458B
:100066002070C8851723E52312025500BD0000C67F
:100076000100CE0200D60300DE0400E60500EE060F
:1000860000F60700FE08015D110149550151AA015C
:100096003EF70136F8012EF90126FA011EFB01167C
:0E00A600FC010EFD0106FE00B4FF000000315B
:1000B400E4F5A0AF28FE02014475A0FFAF287E003E
:1000C400807EC2A0AF287E008076C2A1AF287E00C9
:1000D400806EC2A2AF287E008066C2A3AF287E00D5
:1000E400805EC2A4AF287E008056C2A5AF287E00E1
:1000F400804EC2A6AF287E008046C2A7AF287E00ED
:10010400803ED2A0AF287E008036D2A1AF287E00E8
:10011400802ED2A2AF287E008026D2A3AF287E00F4
:10012400801ED2A4AF287E008016D2A5AF287E0000
:10013400800ED2A6AF287E008006D2A7AF287E000C
:100144001202A2800E85900A12027B800685A00A04
:1001540012027B7523EE02003163A0FFAF287E00FC
:090164001202A27523EE02003123
:080019008F993099FDC2992274
:0D027B00AF287E001202A27B007A007908F5
:1002880012023CFF60131200197F327E001202A294
:0A029800740129F9E43AFA80E72224
:030023000201F9DE
:0B01F900C0E0C0D075D000C000C007FF
:1002040030982CC298AF990525E525700205241471
:1002140025E02412F8760008A607E525640845249D
:0F0224006007E513F44512600675240075250088
:09023300D007D000D0D0D0E03299
:0300000002016D8D
:0C016D00787FE4F6D8FD7581280201B40B
:10023C00BB010689828A83E0225002E722BBFE02C0
:09024C00E32289828A83E49322F3
:10025500D083D082F8E4937012740193700DA3A338
:1002650093F8740193F5828883E47374029368604C
:06027500EFA3A3A380DF4C
:10017900020026E493A3F8E493A34003F68001F276
:1001890008DFF48029E493A3F85407240CC8C33387
:10019900C4540F4420C8834004F456800146F6DF56
:1001A900E4800B01020408102040809002B7E47E2D
:1001B900019360BCA3FF543F30E509541FFEE4934B
:1001C900A360010ECF54C025E060A840B8E493A312
:1001D900FAE493A3F8E493A3C8C582C8CAC583CA3D
:1001E900F0A3C8C582C8CAC583CADFE9DEE780BEF5
:0102C5000038
:00000001FF
