:10000300021600000C0A00000000000000000000BF
:060013000000021A0000CB
:0B027300EF1FAC0670011E4C70F6225D
:10026000759850758920758DFD758BFDD28ED2AF36
:03027000D2AC22EB
:100026001202607508FF7509DD75A0FFC2AC8590E8
:100036001885A01EAF0812001AAF1812001AAF1EBC
:1000460012001AAF0912001AE50BF4450A60030202
:10005600015FE50D64FE450C600302015FE5136474
:10006600FD4512600302015FE51564FC451460035B
:1000760002015F850F19E51912023A00C70000D187
:100086000100DA0200E20300EA0400F20500FA06C3
:10009600010207010A08015211014AF70142F8015B
:1000A6003AF90132FA012AFB0122FC011AFD01127A
:0800B600FE00BEFF0000015F27
:1000BE00E4F5A0AF1FFE02015975A0FFAF1F7E0031
:1000CE00020159C2A0AF1F7E00020159C2A1AF1F8B
:1000DE007E008077C2A2AF1F7E00806FC2A3AF1FCB
:1000EE007E008067C2A4AF1F7E00805FC2A5AF1FD7
:1000FE007E008057C2A6AF1F7E00804FC2A7AF1FE3
:10010E007E008047D2A0AF1F7E00803FD2A1AF1FDE
:10011E007E008037D2A2AF1F7E00802FD2A3AF1FEA
:10012E007E008027D2A4AF1F7E00801FD2A5AF1FF6
:10013E007E008017D2A6AF1F7E00800FD2A7AF1F02
:10014E007E00800763A0FFAF1F7E00120273751939
:01015E00EEB2
:0C015F00D2AC7F507EC31202730200324B
:08001A008F993099FDC2992273
:030023000201F7E0
:0B01F700C0E0C0D075D000C000C00701
:1002020030982CC298AF99051BE51B7002051A1491
:1002120025E0240AF8760008A607E51B6406451ABD
:0F0222006007E50BF4450A6006751A00751B00AE
:09023100D007D000D0D0D0E0329B
:0300000002016B8F
:0C016B00787FE4F6D8FD75811F0201B218
:10023A00D083D082F8E4937012740193700DA3A353
:10024A0093F8740193F5828883E473740293686067
:06025A00EFA3A3A380DF67
:10017700020026E493A3F8E493A34003F68001F278
:1001870008DFF48029E493A3F85407240CC8C33389
:10019700C4540F4420C8834004F456800146F6DF58
:1001A700E4800B0102040810204080900003E47EE5
:1001B700019360BCA3FF543F30E509541FFEE4934D
:1001C700A360010ECF54C025E060A840B8E493A314
:1001D700FAE493A3F8E493A3C8C582C8CAC583CA3F
:1001E700F0A3C8C582C8CAC583CADFE9DEE780BEF7
:0100190000E6
:00000001FF
