:0E02AF000808FFFE00000000FDFD0223000015
:0B02BE00EF1FAC0670011E4C70F62212
:10000300E4F587759850438920758DFD758BFDD276
:060013008ED2AFD2AC2238
:10002600AF907520008F21120003D2ACAF90EF6520
:10003600217002E520600D85900A12028FAF90753F
:1000460020008F21E511F4451070E1E51364FE45AB
:100056001270D9E51D64FD451C70D1E51F64FC4591
:100066001E70C9851522E52212026200BD0000C677
:100076000100CE0200D60300DE0400E60500EE060F
:1000860000F60700FE08015D110149550151AA015C
:100096003EF70136F8012EF90126FA011EFB01167C
:0E00A600FC010EFD0106FE00B4FF000000325A
:1000B400E4F5A0AF27FE02014475A0FFAF277E0040
:1000C400807EC2A0AF277E008076C2A1AF277E00CB
:1000D400806EC2A2AF277E008066C2A3AF277E00D7
:1000E400805EC2A4AF277E008056C2A5AF277E00E3
:1000F400804EC2A6AF277E008046C2A7AF277E00EF
:10010400803ED2A0AF277E008036D2A1AF277E00EA
:10011400802ED2A2AF277E008026D2A3AF277E00F6
:10012400801ED2A4AF277E008016D2A5AF277E0002
:10013400800ED2A6AF277E008006D2A7AF277E000E
:100144001202BE800E85900A120288800685A00ADB
:100154001202887522EE02003263A0FFAF277E00F0
:090164001202BE7522EE02003207
:080019008F993099FDC2992274
:0D028800AF277E001202BE7B007A007908CD
:10029500120249FF60131200197F327E001202BE5E
:0A02A500740129F9E43AFA80E72217
:030023000201F9DE
:0D01F900C0E0C0D075D000C000C005C00738
:10020600309830C298AF99EFFD0524E524700205B9
:10021600231425E02410F8760008A605E5246408D2
:1002260045236007E511F445106006752300752423
:08023600008F99309902C29972
:0B023E00D007D005D000D0D0D0E032B7
:0300000002016D8D
:0C016D00787FE4F6D8FD7581270201B40C
:10024900BB010689828A83E0225002E722BBFE02B3
:09025900E32289828A83E49322E6
:10026200D083D082F8E4937012740193700DA3A32B
:1002720093F8740193F5828883E47374029368603F
:06028200EFA3A3A380DF3F
:10017900020026E493A3F8E493A34003F68001F276
:1001890008DFF48029E493A3F85407240CC8C33387
:10019900C4540F4420C8834004F456800146F6DF56
:1001A900E4800B01020408102040809002AFE47E35
:1001B900019360BCA3FF543F30E509541FFEE4934B
:1001C900A360010ECF54C025E060A840B8E493A312
:1001D900FAE493A3F8E493A3C8C582C8CAC583CA3D
:1001E900F0A3C8C582C8CAC583CADFE9DEE780BEF5
:0102BD000040
:00000001FF
