:10000300021600000C0A00000000000000000000BF
:060013000000021A0000CB
:0B026B00EF1FAC0670011E4C70F62265
:10025800759850758920758DFD758BFDD28ED2AF3E
:03026800D2AC22F3
:100026001202587508FF7509DD75A0FFC2AC8590F0
:100036001885A01EAF0812001AAF1812001AAF1EBC
:1000460012001AAF0912001AE50BF4450A60030202
:100056000151E50D64FE450C6003020151E5136490
:10006600FD45126003020151E51564FC4514600369
:10007600020151850F19E51912023200C40000CDA4
:100086000100D50200DD0300E50400ED0500F506DC
:1000960000FD070105080145F7013DF80135F901A5
:1000A6002DFA0125FB011DFC0115FD010DFE00BB0E
:0500B600FF00000151F4
:1000BB00E4F5A0AF1FFE02014B75A0FFAF1F7E0042
:1000CB00807EC2A0AF1F7E008076C2A1AF1F7E00D4
:1000DB00806EC2A2AF1F7E008066C2A3AF1F7E00E0
:1000EB00805EC2A4AF1F7E008056C2A5AF1F7E00EC
:1000FB00804EC2A6AF1F7E008046C2A7AF1F7E00F8
:10010B00803ED2A0AF1F7E008036D2A1AF1F7E00F3
:10011B00802ED2A2AF1F7E008026D2A3AF1F7E00FF
:10012B00801ED2A4AF1F7E008016D2A5AF1F7E000B
:10013B00800ED2A6AF1F7E008006D2A7AF1F7E0017
:06014B0012026B7519EEB3
:10015100750E0085190FD2AC7F507EC312026B025F
:0201610000326A
:08001A008F993099FDC2992273
:030023000201EFE8
:0B01EF00C0E0C0D075D000C000C00709
:1001FA0030982CC298AF99051BE51B7002051A149A
:10020A0025E0240AF8760008A607E51B6406451AC5
:0F021A006007E50BF4450A6006751A00751B00B6
:09022900D007D000D0D0D0E032A3
:0300000002016397
:0C016300787FE4F6D8FD75811F0201AA28
:10023200D083D082F8E4937012740193700DA3A35B
:1002420093F8740193F5828883E47374029368606F
:06025200EFA3A3A380DF6F
:10016F00020026E493A3F8E493A34003F68001F280
:10017F0008DFF48029E493A3F85407240CC8C33391
:10018F00C4540F4420C8834004F456800146F6DF60
:10019F00E4800B0102040810204080900003E47EED
:1001AF00019360BCA3FF543F30E509541FFEE49355
:1001BF00A360010ECF54C025E060A840B8E493A31C
:1001CF00FAE493A3F8E493A3C8C582C8CAC583CA47
:1001DF00F0A3C8C582C8CAC583CADFE9DEE780BEFF
:0100190000E6
:00000001FF
