:09016600010C0001090001080070
:10000300120146E50860FC7B007A00790A12012D93
:0C001300AF0A12015CE4F50CF50880E770
:030023000200F8E0
:1000F800C0E0C0D075D000C000C007309816C298C4
:10010800AF0C050C740A2FF8A699E50CB402EC752F
:10011800080180E7309905C299750900D007D00019
:05012800D0D0D0E03250
:0A015C008F99750901E50970FC2276
:10012D009000031200CB60101200B2FF12015C743C
:09013D000129F9E43AFA80E822F4
:10014600438920758DFD758BFDC29FD29ED29CD2B0
:06015600ACD2AFD28E22F4
:03000000020026D5
:0C002600787FE4F6D8FD75810C02006DB7
:1000B200BB010689828A83E0225002E722BBFE024C
:0900C200E32289828A83E493227F
:1000CB00BB010CE58229F582E5833AF583E02250EA
:1000DB0006E92582F8E622BBFE06E92582F8E22234
:0D00EB00E58229F582E5833AF583E493224E
:10003200020003E493A3F8E493A34003F68001F2E1
:1000420008DFF48029E493A3F85407240CC8C333CF
:10005200C4540F4420C8834004F456800146F6DF9E
:10006200E4800B0102040810204080900166E47EC7
:10007200019360BCA3FF543F30E509541FFEE49393
:10008200A360010ECF54C025E060A840B8E493A35A
:10009200FAE493A3F8E493A3C8C582C8CAC583CA85
:1000A200F0A3C8C582C8CAC583CADFE9DEE780BE3D
:01016F00008F
:00000001FF
